{
  "_format": "hh-sol-artifact-1",
  "contractName": "FlashLoan",
  "sourceName": "contracts/FlashLoan.sol",
  "abi": [
    {
      "inputs": [
        {
          "internalType": "address",
          "name": "_address",
          "type": "address"
        }
      ],
      "name": "getBalanceOfToken",
      "outputs": [
        {
          "internalType": "uint256",
          "name": "",
          "type": "uint256"
        }
      ],
      "stateMutability": "view",
      "type": "function"
    },
    {
      "inputs": [
        {
          "internalType": "address",
          "name": "_tokenBorrow",
          "type": "address"
        },
        {
          "internalType": "uint256",
          "name": "_amount",
          "type": "uint256"
        }
      ],
      "name": "initiateArbitrage",
      "outputs": [],
      "stateMutability": "nonpayable",
      "type": "function"
    },
    {
      "inputs": [
        {
          "internalType": "address",
          "name": "_sender",
          "type": "address"
        },
        {
          "internalType": "uint256",
          "name": "_amount0",
          "type": "uint256"
        },
        {
          "internalType": "uint256",
          "name": "_amount1",
          "type": "uint256"
        },
        {
          "internalType": "bytes",
          "name": "_data",
          "type": "bytes"
        }
      ],
      "name": "uniswapV2Call",
      "outputs": [],
      "stateMutability": "nonpayable",
      "type": "function"
    }
  ],
  "bytecode": "0x608060405262015180420160005534801561001957600080fd5b50611e8f806100296000396000f3fe608060405234801561001057600080fd5b50600436106100415760003560e01c806302f215281461004657806310d1e85c1461009457806383786f8c14610141575b600080fd5b6100926004803603604081101561005c57600080fd5b81019080803573ffffffffffffffffffffffffffffffffffffffff16906020019092919080359060200190929190505050610199565b005b61013f600480360360808110156100aa57600080fd5b81019080803573ffffffffffffffffffffffffffffffffffffffff1690602001909291908035906020019092919080359060200190929190803590602001906401000000008111156100fb57600080fd5b82018360208201111561010d57600080fd5b8035906020019184600183028401116401000000008311171561012f57600080fd5b909192939192939050505061093a565b005b6101836004803603602081101561015757600080fd5b81019080803573ffffffffffffffffffffffffffffffffffffffff169060200190929190505050610fff565b6040518082815260200191505060405180910390f35b61020c737a250d5630b4cf539739df2c5dacb4c659f2488d7fffffffffffffffffffffffffffffffffffffffffffffffffffffffffffffffff73c02aaa39b223fe8d0a0e5c4f27ead9083c756cc273ffffffffffffffffffffffffffffffffffffffff166110c09092919063ffffffff16565b61027f737a250d5630b4cf539739df2c5dacb4c659f2488d7fffffffffffffffffffffffffffffffffffffffffffffffffffffffffffffffff73a0b86991c6218b36c1d19d4a2e9eb0ce3606eb4873ffffffffffffffffffffffffffffffffffffffff166110c09092919063ffffffff16565b6102f2737a250d5630b4cf539739df2c5dacb4c659f2488d7fffffffffffffffffffffffffffffffffffffffffffffffffffffffffffffffff73514910771af9ca656af840dff83e8264ecf986ca73ffffffffffffffffffffffffffffffffffffffff166110c09092919063ffffffff16565b61036573d9e1ce17f2641f24ae83637ab66a2cca9c378b9f7fffffffffffffffffffffffffffffffffffffffffffffffffffffffffffffffff73c02aaa39b223fe8d0a0e5c4f27ead9083c756cc273ffffffffffffffffffffffffffffffffffffffff166110c09092919063ffffffff16565b6103d873d9e1ce17f2641f24ae83637ab66a2cca9c378b9f7fffffffffffffffffffffffffffffffffffffffffffffffffffffffffffffffff73a0b86991c6218b36c1d19d4a2e9eb0ce3606eb4873ffffffffffffffffffffffffffffffffffffffff166110c09092919063ffffffff16565b61044b73d9e1ce17f2641f24ae83637ab66a2cca9c378b9f7fffffffffffffffffffffffffffffffffffffffffffffffffffffffffffffffff73514910771af9ca656af840dff83e8264ecf986ca73ffffffffffffffffffffffffffffffffffffffff166110c09092919063ffffffff16565b6000735c69bee701ef814a2b6a3edd4b1652cb9cc5aa6f73ffffffffffffffffffffffffffffffffffffffff1663e6a439058473c02aaa39b223fe8d0a0e5c4f27ead9083c756cc26040518363ffffffff1660e01b8152600401808373ffffffffffffffffffffffffffffffffffffffff1673ffffffffffffffffffffffffffffffffffffffff1681526020018273ffffffffffffffffffffffffffffffffffffffff1673ffffffffffffffffffffffffffffffffffffffff1681526020019250505060206040518083038186803b15801561052657600080fd5b505afa15801561053a573d6000803e3d6000fd5b505050506040513d602081101561055057600080fd5b81019080805190602001909291905050509050600073ffffffffffffffffffffffffffffffffffffffff168173ffffffffffffffffffffffffffffffffffffffff161415610606576040517f08c379a00000000000000000000000000000000000000000000000000000000081526004018080602001828103825260138152602001807f506f6f6c20646f6573206e6f742065786973740000000000000000000000000081525060200191505060405180910390fd5b60008173ffffffffffffffffffffffffffffffffffffffff16630dfe16816040518163ffffffff1660e01b815260040160206040518083038186803b15801561064e57600080fd5b505afa158015610662573d6000803e3d6000fd5b505050506040513d602081101561067857600080fd5b8101908080519060200190929190505050905060008273ffffffffffffffffffffffffffffffffffffffff1663d21220a76040518163ffffffff1660e01b815260040160206040518083038186803b1580156106d357600080fd5b505afa1580156106e7573d6000803e3d6000fd5b505050506040513d60208110156106fd57600080fd5b8101908080519060200190929190505050905060008273ffffffffffffffffffffffffffffffffffffffff168673ffffffffffffffffffffffffffffffffffffffff161461074c57600061074e565b845b905060008273ffffffffffffffffffffffffffffffffffffffff168773ffffffffffffffffffffffffffffffffffffffff161461078c57600061078e565b855b90506060878733604051602001808473ffffffffffffffffffffffffffffffffffffffff1673ffffffffffffffffffffffffffffffffffffffff1681526020018381526020018273ffffffffffffffffffffffffffffffffffffffff1673ffffffffffffffffffffffffffffffffffffffff168152602001935050505060405160208183030381529060405290508573ffffffffffffffffffffffffffffffffffffffff1663022c0d9f848430856040518563ffffffff1660e01b8152600401808581526020018481526020018373ffffffffffffffffffffffffffffffffffffffff1673ffffffffffffffffffffffffffffffffffffffff16815260200180602001828103825283818151815260200191508051906020019080838360005b838110156108c95780820151818401526020810190506108ae565b50505050905090810190601f1680156108f65780820380516001836020036101000a031916815260200191505b5095505050505050600060405180830381600087803b15801561091857600080fd5b505af115801561092c573d6000803e3d6000fd5b505050505050505050505050565b60003373ffffffffffffffffffffffffffffffffffffffff16630dfe16816040518163ffffffff1660e01b815260040160206040518083038186803b15801561098257600080fd5b505afa158015610996573d6000803e3d6000fd5b505050506040513d60208110156109ac57600080fd5b8101908080519060200190929190505050905060003373ffffffffffffffffffffffffffffffffffffffff1663d21220a76040518163ffffffff1660e01b815260040160206040518083038186803b158015610a0757600080fd5b505afa158015610a1b573d6000803e3d6000fd5b505050506040513d6020811015610a3157600080fd5b810190808051906020019092919050505090506000735c69bee701ef814a2b6a3edd4b1652cb9cc5aa6f73ffffffffffffffffffffffffffffffffffffffff1663e6a4390584846040518363ffffffff1660e01b8152600401808373ffffffffffffffffffffffffffffffffffffffff1673ffffffffffffffffffffffffffffffffffffffff1681526020018273ffffffffffffffffffffffffffffffffffffffff1673ffffffffffffffffffffffffffffffffffffffff1681526020019250505060206040518083038186803b158015610b0b57600080fd5b505afa158015610b1f573d6000803e3d6000fd5b505050506040513d6020811015610b3557600080fd5b810190808051906020019092919050505090508073ffffffffffffffffffffffffffffffffffffffff163373ffffffffffffffffffffffffffffffffffffffff1614610bcc576040517f08c379a0000000000000000000000000000000000000000000000000000000008152600401808060200182810382526022815260200180611dd86022913960400191505060405180910390fd5b3073ffffffffffffffffffffffffffffffffffffffff168873ffffffffffffffffffffffffffffffffffffffff1614610c50576040517f08c379a0000000000000000000000000000000000000000000000000000000008152600401808060200182810382526021815260200180611db76021913960400191505060405180910390fd5b600080600087876060811015610c6557600080fd5b81019080803573ffffffffffffffffffffffffffffffffffffffff16906020019092919080359060200190929190803573ffffffffffffffffffffffffffffffffffffffff169060200190929190505050925092509250600060016103e56003850281610cce57fe5b04019050600081840190506000808d11610ce8578b610cea565b8c5b9050610cf5816112c7565b6000610d5473a0b86991c6218b36c1d19d4a2e9eb0ce3606eb4873514910771af9ca656af840dff83e8264ecf986ca84735c69bee701ef814a2b6a3edd4b1652cb9cc5aa6f737a250d5630b4cf539739df2c5dacb4c659f2488d611360565b9050610d5f816112c7565b6000610dbe73514910771af9ca656af840dff83e8264ecf986ca73a0b86991c6218b36c1d19d4a2e9eb0ce3606eb488473c0aee478e3658e2610c5f7a4a2e1777ce9e4f2ac73d9e1ce17f2641f24ae83637ab66a2cca9c378b9f611360565b9050610dc9816112c7565b6000610dd585836119ac565b905080610e4a576040517f08c379a00000000000000000000000000000000000000000000000000000000081526004018080602001828103825260188152602001807f417262697472616765206e6f742070726f66697461626c65000000000000000081525060200191505060405180910390fd5b600073a0b86991c6218b36c1d19d4a2e9eb0ce3606eb4890508073ffffffffffffffffffffffffffffffffffffffff1663a9059cbb898886036040518363ffffffff1660e01b8152600401808373ffffffffffffffffffffffffffffffffffffffff1673ffffffffffffffffffffffffffffffffffffffff16815260200182815260200192505050602060405180830381600087803b158015610eec57600080fd5b505af1158015610f00573d6000803e3d6000fd5b505050506040513d6020811015610f1657600080fd5b8101908080519060200190929190505050508973ffffffffffffffffffffffffffffffffffffffff1663a9059cbb8c886040518363ffffffff1660e01b8152600401808373ffffffffffffffffffffffffffffffffffffffff1673ffffffffffffffffffffffffffffffffffffffff16815260200182815260200192505050602060405180830381600087803b158015610faf57600080fd5b505af1158015610fc3573d6000803e3d6000fd5b505050506040513d6020811015610fd957600080fd5b810190808051906020019092919050505050505050505050505050505050505050505050565b60008173ffffffffffffffffffffffffffffffffffffffff166370a08231306040518263ffffffff1660e01b8152600401808273ffffffffffffffffffffffffffffffffffffffff1673ffffffffffffffffffffffffffffffffffffffff16815260200191505060206040518083038186803b15801561107e57600080fd5b505afa158015611092573d6000803e3d6000fd5b505050506040513d60208110156110a857600080fd5b81019080805190602001909291905050509050919050565b60008114806111ba575060008373ffffffffffffffffffffffffffffffffffffffff1663dd62ed3e30856040518363ffffffff1660e01b8152600401808373ffffffffffffffffffffffffffffffffffffffff1673ffffffffffffffffffffffffffffffffffffffff1681526020018273ffffffffffffffffffffffffffffffffffffffff1673ffffffffffffffffffffffffffffffffffffffff1681526020019250505060206040518083038186803b15801561117d57600080fd5b505afa158015611191573d6000803e3d6000fd5b505050506040513d60208110156111a757600080fd5b8101908080519060200190929190505050145b61120f576040517f08c379a0000000000000000000000000000000000000000000000000000000008152600401808060200182810382526036815260200180611e246036913960400191505060405180910390fd5b6112c28363095ea7b360e01b8484604051602401808373ffffffffffffffffffffffffffffffffffffffff1673ffffffffffffffffffffffffffffffffffffffff16815260200182815260200192505050604051602081830303815290604052907bffffffffffffffffffffffffffffffffffffffffffffffffffffffff19166020820180517bffffffffffffffffffffffffffffffffffffffffffffffffffffffff83818316178352505050506119b9565b505050565b61135d81604051602401808281526020019150506040516020818303038152906040527ff82c50f1000000000000000000000000000000000000000000000000000000007bffffffffffffffffffffffffffffffffffffffffffffffffffffffff19166020820180517bffffffffffffffffffffffffffffffffffffffffffffffffffffffff8381831617835250505050611aa8565b50565b6000808373ffffffffffffffffffffffffffffffffffffffff1663e6a4390588886040518363ffffffff1660e01b8152600401808373ffffffffffffffffffffffffffffffffffffffff1673ffffffffffffffffffffffffffffffffffffffff1681526020018273ffffffffffffffffffffffffffffffffffffffff1673ffffffffffffffffffffffffffffffffffffffff1681526020019250505060206040518083038186803b15801561141457600080fd5b505afa158015611428573d6000803e3d6000fd5b505050506040513d602081101561143e57600080fd5b81019080805190602001909291905050509050600073ffffffffffffffffffffffffffffffffffffffff168173ffffffffffffffffffffffffffffffffffffffff1614156114f4576040517f08c379a00000000000000000000000000000000000000000000000000000000081526004018080602001828103825260138152602001807f506f6f6c20646f6573206e6f742065786973740000000000000000000000000081525060200191505060405180910390fd5b6060600267ffffffffffffffff8111801561150e57600080fd5b5060405190808252806020026020018201604052801561153d5781602001602082028036833780820191505090505b509050878160008151811061154e57fe5b602002602001019073ffffffffffffffffffffffffffffffffffffffff16908173ffffffffffffffffffffffffffffffffffffffff1681525050868160018151811061159657fe5b602002602001019073ffffffffffffffffffffffffffffffffffffffff16908173ffffffffffffffffffffffffffffffffffffffff168152505060008473ffffffffffffffffffffffffffffffffffffffff1663d06ca61f88846040518363ffffffff1660e01b81526004018083815260200180602001828103825283818151815260200191508051906020019060200280838360005b8381101561164857808201518184015260208101905061162d565b50505050905001935050505060006040518083038186803b15801561166c57600080fd5b505afa158015611680573d6000803e3d6000fd5b505050506040513d6000823e3d601f19601f8201168201806040525060208110156116aa57600080fd5b81019080805160405193929190846401000000008211156116ca57600080fd5b838201915060208201858111156116e057600080fd5b82518660208202830111640100000000821117156116fd57600080fd5b8083526020830192505050908051906020019060200280838360005b83811015611734578082015181840152602081019050611719565b5050505090500160405250505060018151811061174d57fe5b6020026020010151905060008573ffffffffffffffffffffffffffffffffffffffff166338ed1739898486306000546040518663ffffffff1660e01b815260040180868152602001858152602001806020018473ffffffffffffffffffffffffffffffffffffffff1673ffffffffffffffffffffffffffffffffffffffff168152602001838152602001828103825285818151815260200191508051906020019060200280838360005b838110156118125780820151818401526020810190506117f7565b505050509050019650505050505050600060405180830381600087803b15801561183b57600080fd5b505af115801561184f573d6000803e3d6000fd5b505050506040513d6000823e3d601f19601f82011682018060405250602081101561187957600080fd5b810190808051604051939291908464010000000082111561189957600080fd5b838201915060208201858111156118af57600080fd5b82518660208202830111640100000000821117156118cc57600080fd5b8083526020830192505050908051906020019060200280838360005b838110156119035780820151818401526020810190506118e8565b5050505090500160405250505060018151811061191c57fe5b602002602001015190506000811161199c576040517f08c379a000000000000000000000000000000000000000000000000000000000815260040180806020018281038252601f8152602001807f41626f727465642054783a2054726164652072657475726e6564207a65726f0081525060200191505060405180910390fd5b8094505050505095945050505050565b6000828211905092915050565b6060611a1b826040518060400160405280602081526020017f5361666545524332303a206c6f772d6c6576656c2063616c6c206661696c65648152508573ffffffffffffffffffffffffffffffffffffffff16611ac29092919063ffffffff16565b9050600081511115611aa357808060200190516020811015611a3c57600080fd5b8101908080519060200190929190505050611aa2576040517f08c379a000000000000000000000000000000000000000000000000000000000815260040180806020018281038252602a815260200180611dfa602a913960400191505060405180910390fd5b5b505050565b611abf81611ab7611ada611afb565b63ffffffff16565b50565b6060611ad18484600085611b06565b90509392505050565b60006a636f6e736f6c652e6c6f679050600080835160208501845afa505050565b611d8e819050919050565b606082471015611b61576040517f08c379a0000000000000000000000000000000000000000000000000000000008152600401808060200182810382526026815260200180611d916026913960400191505060405180910390fd5b611b6a85611caf565b611bdc576040517f08c379a000000000000000000000000000000000000000000000000000000000815260040180806020018281038252601d8152602001807f416464726573733a2063616c6c20746f206e6f6e2d636f6e747261637400000081525060200191505060405180910390fd5b600060608673ffffffffffffffffffffffffffffffffffffffff1685876040518082805190602001908083835b60208310611c2c5780518252602082019150602081019050602083039250611c09565b6001836020036101000a03801982511681845116808217855250505050505090500191505060006040518083038185875af1925050503d8060008114611c8e576040519150601f19603f3d011682016040523d82523d6000602084013e611c93565b606091505b5091509150611ca3828286611cc2565b92505050949350505050565b600080823b905060008111915050919050565b60608315611cd257829050611d87565b600083511115611ce55782518084602001fd5b816040517f08c379a00000000000000000000000000000000000000000000000000000000081526004018080602001828103825283818151815260200191508051906020019080838360005b83811015611d4c578082015181840152602081019050611d31565b50505050905090810190601f168015611d795780820380516001836020036101000a031916815260200191505b509250505060405180910390fd5b9392505050565bfefe416464726573733a20696e73756666696369656e742062616c616e636520666f722063616c6c53656e6465722073686f756c64206d61746368207468697320636f6e74726163745468652073656e646572206e6565647320746f206d617463682074686520706169725361666545524332303a204552433230206f7065726174696f6e20646964206e6f7420737563636565645361666545524332303a20617070726f76652066726f6d206e6f6e2d7a65726f20746f206e6f6e2d7a65726f20616c6c6f77616e6365a26469706673582212200fab8073ad2762c3049754103a5018c745413d2b1de22e41cde7f27d13441af964736f6c63430006060033",
  "linkReferences": {},
  "deployedLinkReferences": {}
}